:1000000000207047704708B5406803681B6998472F
:10001000003818BF012008BD10B5144640680368B9
:100020005B689847204610BD704707B503688DF898
:10003000071001225B680DF10701984703B05DF8D6
:1000400004FB0000004B1847000000000148024B71
:10005000184700BF000000000000000010B5044673
:100060000821024B9847204610BD00BF0000000049
:1000700070B504460D46164600214068044B98476B
:10008000324629466068034BBDE87040184700BF00
:10009000000000000000000013B5064B0C460122D2
:1000A00001A99847012812BF00209DF80430237051
:1000B00002B010BD00000000004908470000000029
:1000C000012A10B50C4602D10160002010BD022AA1
:1000D00005D0032AF9D0002AF7D10260F5E70146DE
:1000E000024B0420984723680360EEE700000000FD
:1000F000036808681847000038B50C1A002C13462E
:1001000005DD014622461846024DA8470346181948
:1001100038BD00BF00000000002810B506D001DA8D
:10012000034B9847034BBDE81040184710BD00BF74
:100130000000000000000000004B18470000000015
:1001400070B5044600F508764FF0FF334FF0FF32EC
:10015000304612498847D4F81C320025ABB1D4F898
:100160001C32BBB1D4F8183223441D7DD4F81832A8
:100170000133C3F30803C4F81832D4F81C32013B2E
:10018000C4F81C32D4F81C32EDB23046044B984708
:10019000284670BD4FF0FF35F4E700BF00000000B7
:1001A0000000000038B5044600F508754FF0FF3236
:1001B0004FF0FF3328460A498847D4F81C222846C6
:1001C000084B42B19847D4F81C322BB1D4F81832FE
:1001D0001C44207D38BD98474FF0FF30FAE700BF40
:1001E00000000000000000000A200021004B18471A
:1001F0000000000010B58368044613B103220146D5
:100200009847204610BD000010B50446034B40F847
:10021000043B034B9847204610BD00BF0800000078
:100220000000000010B50446034B984720461421F7
:10023000024B9847204610BD00000000000000005F
:10024000D0E901239B1A0269B2EBA30F84BF0023FC
:100250004375407D7047D0E90132934218BF8360F7
:100260000023036183820360704710B5D0E9014326
:100270001B1BB1EBA30F3DBF54F821300068D2180F
:10028000002038BF801810BD70B5074E051D04460C
:1002900031462846054B98470023314623602846BF
:1002A000034B9847204670BD00000000000000008E
:1002B000000000000022C0E90022C0E90222026121
:1002C0008282704738B54FF4807200210C4B04468F
:1002D000002598474FF0FF330A49C4E94053C4F85A
:1002E0000851094B04F586709847C4E94655C4E99E
:1002F0004855064B04F594709847204638BD00BF1A
:1003000000000000000000000000000000000000ED
:100310004FF4FA6373B5B422009300214FF47A735B
:100320000A4CA04704460121094E0B20B047094D55
:100330002046A84700210B20B0472B46C4F59C401F
:10034000203002B0BDE87040184700BF0000000038
:10035000000000000000000070B505463224034E86
:100360002846B047013CFBD170BD00BF0000000033
:1003700010B52320054CA0474FF4FA60044B984772
:100380002346BDE810404B20184700BF0000000086
:100390000000000010B50446006818B1A168024BC7
:1003A000091A9847204610BD0000000008B5024811
:1003B000024B984708BD00BF00000000000000008D
:1003C00008B50248024B984708BD00BF0000000076
:1003D0000000000030B5836885B003930023D0E9A6
:1003E00000420D68CDE9014205604D6845608D68A9
:1003F0008560C1E900338B6001A8024B984705B0C6
:1004000030BD00BF0000000010B5D0E901431B1B48
:10041000B1EBA30F3DBF036854F82110D2180020A0
:1004200038BF505C10BD000008B5D0E90132D31AC6
:10043000B1EBA30F15D2114B00229847030612D53A
:100440008F2812D99F2812D9BF2812D9C02807D0C7
:10045000C12805D0C3280ED9E02828BFE020C0B2AB
:1004600008BDC120FCE70020FAE78020F8E79020D3
:10047000F6E7A020F4E7C220F2E700BF000000008A
:1004800008B5024B0169984708BD00BF0000000095
:1004900008B5064B9847E02806D03030C0B2032894
:1004A0008CBF0020012008BD0120FCE700000000F7
:1004B00070B50669D0E901239B1AB6EBA30F044679
:1004C00003D300234375002008E00125064B457542
:1004D0009847C0282E4402D12846266170BD0023CB
:1004E00026616375EFE700BF0000000008B5064B0A
:1004F0009847902806D02430C0B201288CBF002035
:10050000012008BD0120FCE70000000008B5064BF3
:100510009847802806D02230C0B201288CBF002026
:10052000012008BD0120FCE70000000008B5064BD3
:10053000984730B13430C0B203288CBF002001206E
:1005400008BD0120FCE700BF0000000073B505698D
:10055000D0E901639B1BB5EBA30F044604D3002332
:1005600043759FED100A17E0012343750E4B984722
:10057000CA2805F1010311D1236156F8250022682C
:10058000031D134401A9024413F801099A4201F81A
:10059000010BF9D19DED010A02B070BD002223616B
:1005A0006275DEE7000000000000000000000000AF
:1005B00073B50569D0E901639B1BB5EBA30F044636
:1005C00004D3002343759FED120B18E001234375FC
:1005D000114B9847CB2805F1010312D169462361DD
:1005E00056F82500226800F108031344024413F86A
:1005F00001099A4201F8010BF9D19DED000B02B0FF
:1006000070BD002223616275DDE700BFAFF300809B
:1006100000000000000000000000000073B5056944
:10062000D0E901639B1BB5EBA30F044604D3002361
:1006300043750020002118E0012343750E4B9847B5
:10064000D32805F1010312D16946236156F825002C
:10065000226800F108031344024413F801099A4286
:1006600001F8010BF9D1DDE9000102B070BD0022F3
:1006700023616275DDE700BF0000000073B5056906
:10068000D0E901639B1BB5EBA30F044603D3002302
:100690004375002016E0012343750D4B9847D2287F
:1006A00005F1010310D1236156F825002268031DCE
:1006B000134401A9024413F801099A4201F8010BFD
:1006C000F9D1019802B070BD002223616275E0E7A4
:1006D0000000000070B50569D0E901639B1BB5EB14
:1006E000A30F044603D300234375002011E0012328
:1006F00043750A4B9847D12805F101030AD12361BC
:1007000056F825202368134498785B7863F30F200C
:1007100000B270BD002223616275E6E700000000B0
:1007200038B50569D0E901239B1AB5EBA30F044640
:1007300003D30023437500200EE001234375094BCA
:100740009847E02805F1010307D1236100222946DB
:100750002046054B984740B238BD002223616275A0
:10076000E9E700BF000000000000000038B505699F
:10077000D0E901239B1AB5EBA30F044603D3002352
:10078000437500200DE001234375084B98476B1C0F
:10079000024638B9236129462046054B984700F0A8
:1007A0007F0038BD002223616275EAE70000000087
:1007B0000000000070B50569D0E901239B1AB5EB74
:1007C000A30F044603D30023437500200DE0012648
:1007D000084B46759847CC2805EB060306D12361E4
:1007E000324629462046044B984770BD00222361BB
:1007F0006275EAE7000000000000000010B5D0E9D3
:1008000001431B1BB1EBA30F37BF54F8213000206D
:10081000D21803683FBF991848789B5C40EA0320D0
:1008200010BD000070B50569D0E901239B1AB5EB36
:10083000A30F044603D30023437500200DE00126D7
:10084000084B46759847CD2805EB060306D1236172
:10085000324629462046044B984770BD002223614A
:100860006275EAE7000000000000000013B5D0E95F
:1008700001431B1BB1EBA30F10D254F821300168C8
:100880001A44131D0B4401A8114413F8012D8B4287
:1008900000F8012BF9D1019802B010BD0020FBE750
:1008A00038B5424B04460D469847002877D080382B
:1008B000C3B2602B75D8602873D8DFE800F070727F
:1008C000727272727272727272727272727270720A
:1008D00072727272727272727272727272723F722B
:1008E00072727272727272727272727272727272E8
:1008F00072727272727272727272727272727072DA
:100900007072484F565D62693539743135397431CA
:1009100035393133373B3D484F563135313570002D
:10092000032038BD0420FCE70520FAE70620F8E79D
:100930000920F6E70A20F4E71220F2E70022294610
:1009400020461B4B984700F01F000130E9E70122C9
:1009500029462046164B98470230E2E701222946F5
:100960002046144B98470330DBE7012229462046F6
:10097000114B98470530D4E70122294620460C4BFD
:10098000F0E70122294620460A4B98470430C8E781
:10099000012229462046084B98470630C1E701202E
:1009A000BFE70020BDE70220BBE700BF000000005A
:1009B00000000000000000000000000070B50569A4
:1009C000D0E901239B1AB5EBA30F044603D3002300
:1009D0004375002013E00126124B46759847DC282A
:1009E00005EB06030CD0DD2811D0902815D123612A
:1009F0000022294620460C4B984700F00F0070BD9E
:100A00003246294620462361084B9847F7E7236181
:100A1000324629462046064BF7E7002223616275DD
:100A2000D7E700BF00000000000000000000000049
:100A30000000000038B5037D04460D461BB1D0E927
:100A400001239A4202D10023637538BD9B1A0269C3
:100A5000B2EBA30FF7D2054B98472860637D002BBC
:100A6000F3D02046024B9847EFE700BF000000009C
:100A70000000000070B50569D0E901239B1AB5EBB1
:100A8000A30F044603D30023437500200DE0012685
:100A9000084B46759847CE2805EB060306D123611F
:100AA000324629462046044B984770BD00222361F8
:100AB0006275EAE7000000000000000070B50569FB
:100AC000D0E901239B1AB5EBA30F044603D30023FF
:100AD0004375002013E00126124B46759847DE2827
:100AE00005EB06030CD0DF2811D0802815D1236137
:100AF0000022294620460C4B984700F00F0070BD9D
:100B00003246294620462361084B9847F7E7236180
:100B1000324629462046064BF7E7002223616275DC
:100B2000D7E700BF00000000000000000000000048
:100B30000000000013B5D0E901431B1BB1EBA30F6C
:100B400012D254F82130016868461A4402F10803B1
:100B50000B44114413F8012D8B4200F8012BF9D1FD
:100B6000DDE9000102B010BD00200021FAE700001D
:100B700070B50569D0E901239B1AB5EBA30F0446B4
:100B800004D300234375002001460DE00126094BE4
:100B900046759847CF2805EB060306D123613246F8
:100BA00029462046044B984770BD00222361627598
:100BB000E9E700BF000000000000000010B5D0E928
:100BC00001431B1BB1EBA30F3DBF036854F8211079
:100BD000D218002038BF505610BD000070B505690E
:100BE000D0E901239B1AB5EBA30F044603D30023DE
:100BF000437500200DE00126084B46759847D02824
:100C000005EB060306D12361324629462046044BF4
:100C1000984770BD002223616275EAE7000000007A
:100C20000000000010B5084B04469847D62808D1AC
:100C3000064B0122204621699847431C58425841DF
:100C400010BD0020FCE700BF000000000000000015
:100C500010B5084B04469847D72808D1064B012207
:100C6000204621699847431C5842584110BD002036
:100C7000FCE700BF000000000000000038B50C4B8E
:100C800004469847C72811D12569022229462046E3
:100C9000084B9847013009D1074B012229462046CD
:100CA0009847A0F10C035842584138BD0020FCE79A
:100CB00000000000000000000000000010B5D0E9B6
:100CC00001431B1BB1EBA30F3DBF036854F8211078
:100CD000D218002038BF505C10BD000038B5037D2D
:100CE00004460D461BB1D0E90123934203D10023F2
:100CF0006375002038BD9B1A0269B2EBA30FF6D2D0
:100D0000044B98472870637D002BF2D02046024B9D
:100D10009847EFE7000000000000000070B5037D79
:100D200004460D461BB1D0E90123934203D10023B1
:100D30006375002070BD06699B1AB6EBA30FF6D24F
:100D4000012343750C4B9847C22806F101030FD1CC
:100D50002361002231462046084B984700F00100ED
:100D60002870637D002BE4D02046054B9847E1E7CF
:100D7000002023616075F3E7000000000000000020
:100D8000000000002DE9F043037D04460E4685B0C7
:100D90001BB1D0E90123934205D1002363750020E4
:100DA00005B0BDE8F08305699B1AB5EBA30FF4D23B
:100DB0000127464B47759847DA28454B6CD00BD82E
:100DC000A02824D0D9284DD0002201354149627590
:100DD000256101A898472FE0DB28F5D13D4901A8FE
:100DE00098473A46204621693B4B984700250746DD
:100DF000DFF8FC80DFF8FC90AF4221691AD06A1D51
:100E00002046C047014601A8C8470135F4E73149EB
:100E100001A89847002220462169304B98470025B9
:100E2000DFF8CC80DFF8CC9000F01F07EBB29F42D8
:100E300021690FD801312161294B01A9304698471A
:100E4000284B01A89847637D002BA8D02046264B4D
:100E50009847A5E701352A462046C047014601A824
:100E6000C847E3E71B4901A898473A46204621694D
:100E70001A4B984700250746DFF87480DFF8749016
:100E8000EBB2BB422169D5D2AA1C2046C04701461D
:100E900001A8C8470135F3E70E4901A898473A462B
:100EA00020462169114B984700250746DFF840800E
:100EB000DFF84090ABB29F422169BBD9EA1C2046C3
:100EC000C047014601A8C8470135F3E7000000000C
:100ED0000000000000000000000000000000000012
:100EE0000000000000000000000000000000000002
:100EF00000000000000000002DE9F041037D0446E1
:100F00000E461BB1D0E90123934204D1002363753F
:100F10000020BDE8F08107699B1AB7EBA30FF5D25B
:100F2000012343751F4B984707F1010890B11E4BF1
:100F3000022239462046C4F81080984700231D46F7
:100F4000C6E90003B560637D002BE1D02046174B56
:100F50009847DEE72046164B984750B1154B0222C2
:100F600039462046C4F8108098478D0801F00303E5
:100F7000E6E72046104B9847054670B103223946F4
:100F8000094B204698470B4B054607223946204619
:100F9000C4F8108098470B46D2E703466075C4F842
:100FA0001080CDE7000000000000000000000000FD
:100FB000000000000000000000000000F8B5074637
:100FC0000423174E013B00D1FEE73568BD4202D134
:100FD00074682046F8BD05BB3146124B41F8087BCA
:100FE0004FF4836098474FF4806204460E4B2946C5
:100FF00040F8047B98474FF0FF330C4AC4F808349C
:101000001368C4F804540133C4F80C54C4F81054E1
:10101000C4F8145413607460DBE706F58466D1E706
:1010200000000000000000000000000000000000C0
:1010300010B50446006818B1A168024B091A984718
:10104000204610BD0000000010B50446064B00F518
:1010500096709847054B04F58C709847044B04F53F
:1010600086709847204610BD000000000000000078
:10107000000000002DE9F84F6FF06043D0E9008ACE
:101080001546AAEB0802B3EBA20F074689464FEAC2
:10109000A20402D12748284B9847C24514BF2246D4
:1010A0000122A418A1EB080B2BD264B39C4228BFE9
:1010B0001C46224BA00098470646214B042006EB15
:1010C0000B0198472B68BBF1000F03600BF104057F
:1010D000AAEB090A19DD5A4641463046194B984792
:1010E0007019BAF1000F00EB0A0503DD52464946BC
:1010F000154B9847B9684046144BA1EB0801984737
:1011000010E01C46D5E72646D7E7BAF1000F354474
:1011100004DD5246494628460B4B98475544B8F1E2
:10112000000FE7D1C7E9006506EB8406BE60BDE8A5
:10113000F88F00BF01000000000000000000000068
:10114000000000000000000000000000000000009F
:101150002DE9F743044616460025184FDFF8608056
:10116000DFF860900160AE42A16801950FD8636816
:1011700051F8045CC91A891020460139B84728443F
:10118000831B58425841207503B0BDE8F083E368E3
:101190008B420ED00420C8470560A3680433A360C7
:1011A000D4E90131C91A891020460139B8470544EC
:1011B000D9E7194601AA201DC047F1E70000000049
:1011C000000000000000000010B504461046D4E9FD
:1011D00000236FF000449B1AE21A8A4201D2074BA7
:1011E0009847994238BF19465B1804D2A34228BFDA
:1011F0002346184610BD2046FCE700BF0000000053
:101200002DE9F047D0E901739F4204468846DFF894
:1012100078A00AD039460120D04798F800300370F2
:10122000636801336360BDE8F087134A0121134B03
:101230009847134B266881469847B91B01440546D9
:101240000120D04798F80030394603702A46DFF86D
:101250003C803046C0473946421C3846C0470746A6
:1012600026B1A1683046074B891B9847C4E900574F
:101270004D44A560D7E700BF01000000000000005A
:10128000000000000000000000000000000000005E
:101290002DE9F047D0E901739F4204468846DFF804
:1012A00078A00AD039460120D04798F80030037062
:1012B000636801336360BDE8F087134A0121134B73
:1012C0009847134B266881469847B91B0144054649
:1012D0000120D04798F80030394603702A46DFF8DD
:1012E0003C803046C0473946421C3846C047074616
:1012F00026B1A1683046074B891B9847C4E90057BF
:101300004D44A560D7E700BF0100000000000000C9
:1013100000000000000000000000000000000000CD
:101320002DE9F043037D05460F4685B01BB1D0E99A
:101330000123934205D100236B75002005B0BDE861
:10134000F08306699B1AB6EBA30FF4D24FF00108A5
:101350003A4B80F815809847C5284FF000042ED0EE
:10136000C62848D0C42861D1424631462846DFF815
:10137000E480CDE901440394C0470646DFF8D890E5
:10138000E3B29E4229690FD80131296138462C4BBE
:1013900001A998472B4B01A898476B7D002BCCD017
:1013A0002846294B9847C9E7A21C2846C0470DF19B
:1013B00003018DF8030001A8C8470134E0E7424665
:1013C00031462846214BCDE901440394984706460F
:1013D000DFF88080DFF88090A3B2B3422969D3D2CE
:1013E000E21C2846C0470DF103018DF8030001A857
:1013F000C8470134F0E7424631462846144BCDE950
:101400000144039498470646DFF84880DFF8489087
:10141000A6422969B8D0621D2846C0470DF10301D4
:101420008DF8030001A8C8470134F1E70136CDE982
:1014300001446C752E610394A8E700BF0000000012
:10144000000000000000000000000000000000009C
:1014500000000000000000000000000007B5044B81
:101460008DF807100DF10701984703B05DF804FBF4
:101470000000000010B50446034BC0219847E36804
:101480000133E36010BD00BF0000000037B5044623
:101490000D46074BCC2198472046064B0DF107011E
:1014A0008DF807509847E3680133E36003B030BD1F
:1014B00000000000000000002DE9F047D0E90173B2
:1014C0009F4204468846DFF878A00AD039460120BA
:1014D000D04798F800300370636801336360BDE85B
:1014E000F087134A0121134B9847134B2668814616
:1014F0009847B91B014405460120D04798F80030B1
:10150000394603702A46DFF83C803046C0473946EA
:10151000421C3846C047074626B1A1683046074BF3
:10152000891B9847C4E900574D44A560D7E700BF21
:1015300001000000000000000000000000000000AA
:101540000000000000000000F8B505460E46032428
:10155000034F31192846B847013CFAD2F8BD00BF05
:101560000000000013B504460191064BCE219847B8
:101570002046054B01A99847E3680133E36002B0B8
:1015800010BD00BF000000000000000070B505465F
:101590000C46044E0131B047214628463346BDE88B
:1015A00070401847000000000F2913B504460BD8FF
:1015B00061F06F018DF804100D4B01A99847E368A5
:1015C0000133E36002B010BDB1F5803F094B08D292
:1015D000ADF80410DC2198472046074B01A9984735
:1015E000EDE70191DD2198472046044B01A9F6E77C
:1015F00000000000000000000000000000000000EB
:1016000013B50446ADF80610064BCD219847204689
:10161000054B0DF106019847E3680133E36002B022
:1016200010BD00BF00000000000000007E2913B5BF
:1016300004460AD80D4B8DF807100DF107019847A5
:10164000E3680133E36002B010BDFF2903D8084B03
:10165000C9B29847F7E7B1F5803F03D2054B89B28D
:101660009847F0E7044B9847EDE700BF0000000003
:1016700000000000000000000000000073B50C1E18
:10168000054621DB7E2C08DC8DF8044001A9234BA4
:101690009847EB680133EB6008E0E317B4F5807F0F
:1016A00073F1000204D21E4BE1B2984702B070BD44
:1016B000B4F5803F73F1000303D21A4BA1B29847EF
:1016C000F4E7194B9847F1E714F11E0FDCDA14F137
:1016D000800F164B06DBD021984728468DF8044032
:1016E00001A9D4E714F5004F114E0BDBD121ADF861
:1016F0000440984728460DF10501B047284601A946
:10170000B047C6E70194D2219847032401AB1919C9
:101710002846B047013CF9D2BBE700BF00000000FB
:1017200000000000000000000000000000000000B9
:10173000000000002DE9F84F04460D46DFF88CA0AC
:1017400001EB020BAB4501D1BDE8F88FD4E9018371
:10175000984509D041460120D0472B780370636833
:10176000013363600135EDE7134A0121134B204635
:101770009847134B276881469847A8EB0701014417
:1017800006460120D0472B784146037032460D4B68
:10179000384698474146421C0A4B40469847804687
:1017A00027B1A1683846084BC91B9847C4E90068AF
:1017B0004E44A660D6E700BF010000000000000014
:1017C0000000000000000000000000000000000019
:1017D000F7B58D6804461F2D0F68174E0FD865F0BA
:1017E0005F038DF8043001A9144B98472A46394607
:1017F0002046B047E3680133E36003B0F0BDFF2D3E
:101800000F4B06D8D921984720468DF8045001A9DE
:10181000EAE7B5F5803F08D2DA2198472046094B20
:10182000ADF8045001A99847E0E7DB21984720462E
:10183000054B019501A9F6E700000000000000003B
:1018400000000000000000000000000070B5044629
:1018500016461D46074B984720463168064B984769
:1018600020462968054B984720460499044B984721
:1018700070BD00BF0000000000000000000000007C
:101880000000000038B50C4605460221074B98477A
:1018900054F8041B2846064B984728462146054B1A
:1018A00098472846044B984738BD00BF0000000009
:1018B00000000000000000000000000038B50569CD
:1018C000D0E901239B1AB5EBA30F044603D30023F1
:1018D000437500201CE001234375214B984728B332
:1018E00000F13403DBB2142B35D8CC38142832D8AD
:1018F000DFE800F01F22252B0F121518313131318E
:1019000031313131313131310B002046154B98479F
:1019100038BD2046144BFAE72046144BF7E7204623
:10192000134BF4E72046134B9847F1E72046124B40
:10193000EDE72046114BEAE72046114BE7E720464A
:10194000104B984720EAE070E2E720460E4B98479C
:101950000029DDDABDE70023013563752561B8E7AD
:101960000000000000000000000000000000000077
:101970000000000000000000000000000000000067
:1019800000000000000000000000000038B5037DEA
:1019900004460D461BB1D0E90123934203D1002335
:1019A0006375002038BD9B1A0269B2EBA30FF6D213
:1019B000044B98472860637D002BF2D02046024BF1
:1019C0009847EFE7000000000000000038B5056907
:1019D000D0E901239B1AB5EBA30F044604D30023DF
:1019E00043759FED2F0A21E0012343752D4B984746
:1019F000A8B100F13603DBB2162B4BD8CA38162833
:101A000048D8DFE800F03B3F14171A1D2D3033365D
:101A100047474747474747474747474725002046E7
:101A2000214B984700EE100AB8EE400A38BD204618
:101A30001E4BF6E720461E4BF3E720461D4BF0E712
:101A40001D4B204698471D4B984700EE100AEDE7C6
:101A500020461B4B984700EE100AB8EEC00AE5E797
:101A60002046184BF6E72046174BF3E72046174B66
:101A7000F0E7174B20469847164BE5E72046164BF4
:101A80009847D3E72046154B9847154B51EC100B60
:101A90009847DAE70023013563752561A1E700BFA8
:101AA0000000000000000000000000000000000036
:101AB0000000000000000000000000000000000026
:101AC0000000000000000000000000000000000016
:101AD0000000000000000000000000000000000006
:101AE000000000000000000038B50569D0E90123BE
:101AF0009B1AB5EBA30F044604D3002343759FED57
:101B00002C0B21E0012343752B4B9847A8B100F122
:101B10003603DBB2162B46D8CA38162843D8DFE87E
:101B200000F0363E14171A1D282B2E314242424235
:101B30004242424242424242230020461F4B9847C3
:101B40001F4B984741EC100B38BD20461D4BF6E764
:101B500020461D4BF3E720461C4BF0E71C4B20466C
:101B600098471C4B9847EDE720461B4B98471B4B6B
:101B7000E7E720461A4BF9E720461A4BF6E72046DE
:101B8000194BF3E7194B20469847194BEAE72046D3
:101B9000184B9847184B10EE100A9847D2E720468A
:101BA000164B9847D0E70023013563752561A6E7FA
:101BB0000000000000000000000000000000000025
:101BC0000000000000000000000000000000000015
:101BD0000000000000000000000000000000000005
:101BE00000000000000000000000000000000000F5
:101BF00000000000000000000000000000000000E5
:101C000070B5037D04460E4615461BB1D0E901238D
:101C1000934203D100236375002070BD9B1A0269B3
:101C2000B2EBA30FF6D2054B98473060637D002BD3
:101C3000F2D029462046024B9847EEE7000000000C
:101C400000000000F8B506460F4615460024AC42D9
:101C500001D32046F8BD30682A1B036839199B68F8
:101C600098470444F3E700002DE9F04104460020C2
:101C70001D4688B0D4F81074CDE90300CDE9050005
:101C80000790009102AB042104A81646DFF85880A3
:101C900003AA0297C04701210F4B04A89847294681
:101CA0000E4B04A89847DDE904156D1A2A46204614
:101CB0000B4B984785420B4A04D004A8904708B0C4
:101CC000BDE8F081D4F8103404A80133C4F810340E
:101CD00090473760F3E700BF0000000000000000FD
:101CE0000000000000000000000000002DE9F041AD
:101CF0000025044688B0D0F8107402AB009104A807
:101D000004211646DFF8548003AACDE90355CDE936
:101D1000055507950297C04729460D4B04A89847DB
:101D2000DDE904156D1A2A4620460A4B984785427C
:101D3000094A04D004A8904708B0BDE8F081D4F85F
:101D4000103404A80133C4F8103490473760F3E727
:101D50000000000000000000000000000000000083
:101D60002DE9F041044600201D4688B0D4F81074D7
:101D7000CDE90300CDE905000790009102AB0421F5
:101D800004A81646DFF8588003AA0297C04701212D
:101D90000F4B04A8984729680E4B04A89847DDE923
:101DA00004156D1A2A4620460B4B984785420B4A6C
:101DB00004D004A8904708B0BDE8F081D4F81034EE
:101DC00004A80133C4F8103490473760F3E700BF2C
:101DD0000000000000000000000000000000000003
:101DE000000000002DE9F04304460D461646DFF8DA
:101DF0009490DFF8948085B000F1240764220023DA
:101E00003846C847002831D12368CDE90000CDE924
:101E10000200DFF8789068460321D3F80080144C64
:101E2000C84768460221A047124B29466846984792
:101E300068460121C84768463168A047DDE90014BB
:101E4000641A0D4B224640469847844208BFD8F892
:101E50001034684604BF0133C8F81034074B984764
:101E60003846074B05B0BDE8F0431847C047C5E703
:101E70000000000000000000000000000000000062
:101E80000000000000000000000000000000000052
:101E90002DE9FF41441E052C2FD84FF4FA601C4B4E
:101EA00098471C4B1C4953F824401C481C4FB8470A
:101EB00021461C481C4CA047DFF868801B4E40465A
:101EC000B0470546E0B91A4B98471A4913480095A0
:101ED000B8470A211348A047174D124C2046B04777
:101EE00090B91649164B01A898471648164B6A46F2
:101EF00001A99847154B01A8984704B0BDE8F081A7
:101F000040460D4B9847DAE72046A847E6E700BF72
:101F100000000000000000001B00000000000000A6
:101F200000000000000000000000000000000000B1
:101F3000000000002A000000000000003600000041
:101F40000000000000000000000000000000000091
:101F500008B5D1F804315A1C09D0D1E946128A4299
:101F600005D0022B03D00068014B521A984708BDD8
:101F70000000000003460846D3F8041430B51418D6
:101F80008C4210D850B16FF003050432091A1A447C
:101F9000ED1AAC18A14202D8C3F8041430BD145C89
:101FA00002F8014BF5E70020F8E7000010B5094BF7
:101FB0000022D0F80C14044698474FF0FF33C4F8C1
:101FC00008340023C4F80C34D4F814340133C4F8B2
:101FD000143410BD000000002DE9F041037D0446DB
:101FE0000D4616461BB1D0E90123934203D10023CD
:101FF000637500202AE09B1A02694FEAA308B2EB3E
:10200000A30FF4D2124A134F136813F0010302BF57
:102010003B6001231360104B9847637D3860002BB1
:10202000E7D023699845E2D90C4B204698472860B1
:10203000637D002BDDD00A4B2046291D9847637D28
:10204000002BD6D031462046064B9847BDE8F0819C
:102050000000000000000000000000000000000080
:1020600000000000000000007FB50646134B14205E
:102070009847002504466946114B0420CDE90055D8
:10208000CDE902559847066020460E4B0E4A039351
:1020900040F8042B0D4B022269466560C0E90155EA
:1020A000256102939847039B68462361029BE36086
:1020B000074B9847204604B070BD00BF00000000E9
:1020C0000000000000000000080000000000000008
:1020D0000000000038B50569D0E901239B1AB5EB73
:1020E000A30F044603D300234375002013E001230C
:1020F0004375124B984758B100F13403DBB2032B00
:1021000017D8CD38022807D8DFE800F0090C0F00F7
:1021100020460B4B984738BD20460A4BFAE720462D
:10212000094BF7E72046094BF4E72046084B984750
:10213000F1E70023013563752561D6E70000000053
:10214000000000000000000000000000000000008F
:102150000000000070B5037D04460E4615461BB115
:10216000D0E90123934203D100236375002070BDA1
:102170009B1A0269B2EBA30FF6D2054B9847306069
:10218000637D002BF2D029462046024B9847EEE7AC
:1021900000000000000000002DE9F041D1F80C74AF
:1021A0000446032F0D462A4E8CB006D820462949F6
:1021B000B04720460CB0BDE8F081D1F8083433F0C8
:1021C0000208F3D1244B06A89847244B06A8984749
:1021D0003A46234B291D06A8984748B92846214B63
:1021E000984720461B49B0471F4B07A89847E0E790
:1021F000184903A8B0476A461C4B01A906A8CDF8A8
:102200000480984748B92846164B984720461149FC
:10221000B047174B03A89847E6E7009B73B9019BAB
:10222000042BF0D1134B03AA02A906A89847002853
:10223000E9D02046104B03A99847EAE7022BE2D1E8
:10224000019B032BDFD10D4B03A906A89847EEE7AE
:10225000000000000000000000000000000000007E
:10226000000000000000000000000000000000006E
:10227000000000000000000000000000000000005E
:10228000F0B5D0F80051044687B01DB900252846A6
:1022900007B0F0BD00F5947630461E4B98472A46AD
:1022A000214630461C4B98470028EFD01B491C4B59
:1022B00003A8984700236A4602933046194B02A9A7
:1022C0009847054620B90025174B03A89847DEE735
:1022D000009FA7B9029B042BF5D13046134B03AAEC
:1022E00001A998470028EED0114B03A904F5867088
:1022F0009847019BC4F80471C4F80831E4E7022F41
:10230000E1D1029B032BDED130460A4B03A998474B
:10231000E8E700BF0000000000000000000000002F
:1023200000000000000000000000000000000000AD
:1023300000000000000000002DE9F047374B064682
:1023400088B008460C46984704F5867804F59477DB
:10235000C0B94FF0FF333249C4E94130C4F800013D
:10236000304B40469847304B38469847D4E9463280
:10237000934218BFC4F81C310023C4F8243108B0BC
:10238000BDE8F087D4E94632934218BFC4F81C3147
:102390000023C4F82431D4F8043104F58C7563B9F2
:1023A00004212846214B984701212846204B984775
:1023B0002846D4F808111F4B98470024DFF888A05E
:1023C00006F10409D6F8F43A41469C4212D31A4B5E
:1023D00001A89847FE2301A9049305A8174B984725
:1023E0002846174B04A99847164C05A8A04701A8F2
:1023F000A047C4E74846D04709F11C0958B11C233F
:102400002A46394603FB0464E06903689B6808B008
:10241000BDE8F04718470134D4E700BF00000000D2
:1024200000000000000000000000000000000000AC
:10243000000000000000000000000000000000009C
:1024400000000000000000000000000038B5037D1F
:1024500004460D461BB1D0E90123934203D100236A
:102460006375002038BD9B1A0269B2EBA30FF6D248
:10247000044B98472860637D002BF2D02046024B26
:102480009847EFE700000000000000002DE9F04150
:102490001E46037D0446884617461BB1D0E9013528
:1024A0009D4204D1002363750020BDE8F081ED1A40
:1024B0000369B3EBA50FF5D20F4B9847C8F800009E
:1024C000637D002BF0D0237D002BEBD0D4E90130CD
:1024D0008342E7D0C01A2369B3EBA00FE2D2074BC7
:1024E000204698473860637D002BDDD0314620467A
:1024F000034B9847D9E700BF000000000000000030
:10250000000000002DE9F043D0F80C640546032ECE
:10251000884617461C468BB040F28680D0F80834B7
:10252000012B40F08180414B04A89847404B04A800
:10253000984732463F4B291D04A8984738B90026D2
:102540003D4B05A8984730460BB0BDE8F0834FF0EF
:1025500000093A4E03AB02AA01A904A8CDF80490E1
:10256000B04706460028EAD0039B4345E7D1029BCB
:10257000012B0AD02046FC23314940F8043B314B63
:1025800098472846304B9847DAE7019B042B05D043
:102590002046FC232D4940F8043BF0E72C4B04A8CF
:1025A0008DF800909847C02831D19DF824301BB198
:1025B000DDE905239A4208D100238DF82530204615
:1025C000FC23244940F8043BD9E79B1A089AB2EB54
:1025D000A30FF1D2204B04A898479DF825308DF821
:1025E0000000002BEBD039461C4B04A8984700286C
:1025F000E5D01B4B00222846D5F80C1498474FF025
:10260000FF33C5F808340023C5F80C3498E76A4650
:102610002146144B04A898470028EAD12046FC2301
:10262000114940F8043BAAE700268CE700000000AF
:10263000000000000000000000000000000000009A
:102640003A000000000000000000000053000000FD
:10265000000000007000000000000000000000000A
:102660000000000000000000910000002DE9F04390
:10267000D0F80C640546032E884617461C468BB0DE
:1026800040F28680D0F80834012B40F08180414B25
:1026900004A89847404B04A8984732463F4B291D51
:1026A00004A8984738B900263D4B05A898473046FE
:1026B0000BB0BDE8F0834FF000093A4E03AB02AA1D
:1026C00001A904A8CDF80490B04706460028EAD036
:1026D000039B4345E7D1029B012B0AD02046FC23F4
:1026E000314940F8043B314B98472846304B9847D6
:1026F000DAE7019B042B05D02046FC232D4940F846
:10270000043BF0E72C4B04A88DF800909847C028B4
:1027100031D19DF824301BB1DDE905239A4208D15F
:1027200000238DF825302046FC23244940F8043B43
:10273000D9E79B1A089AB2EBA30FF1D2204B04A859
:1027400098479DF825308DF80000002BEBD03946D6
:102750001C4B04A898470028E5D01B4B00222846B4
:10276000D5F80C1498474FF0FF33C5F80834002310
:10277000C5F80C3498E76A462146144B04A89847DC
:102780000028EAD12046FC23114940F8043BAAE77F
:1027900000268CE7000000000000000000000000A0
:1027A00000000000000000003A00000000000000EF
:1027B0000000000053000000000000007000000056
:1027C0000000000000000000000000000000000009
:1027D0009100000038B50C1A134605D00146224678
:1027E0001846024DA8470346181938BD00000000DE
:1027F00038B50C1A134605D0014622461846024D3C
:10280000A8470346181938BD000000002DE9F74F0E
:102810009846002308F1010A9A450446894617465E
:10282000C0E90033836002DA2F48304B984713D059
:102830002F4B504698472668054602466168304649
:102840002C4B984726B1A16830462B4B891B9847E3
:10285000C4E900555544A5602046284B0DF10701F9
:1028600007EB080B8DF807909847BB4516D0D4E9C5
:1028700001639B1B9845DFF890A0DFF8909011D87A
:10288000324659463846D047626831464244626013
:102890003046C847324639463846D047204603B00E
:1028A000BDE8F08F4146164A164B20469847104B1C
:1028B000804698473146024605462068C847594633
:1028C00002463846D047616802463046C847064649
:1028D000206818B1A168084B091A9847C4E9005646
:1028E0004544A560DAE700BFB50000000000000025
:1028F00000000000000000000000000000000000D8
:10290000C500000000000000000000000000000002
:102910002DE9F8430D69D1E901239B1AB5EBA30F0B
:1029200006460C4605D300234B75C6E90033B36059
:1029300026E0012308464B754C4B9847C7386F1C5F
:10294000112800F28F80DFE800F05A6F7E8D8D8DA8
:102950008D8D8D8D8D8D8D091E2D3C4B012229462F
:10296000434B204698470222424B80462946204648
:102970002761984701230246414630463E4CA04716
:102980003046BDE8F88301222946394B2046984756
:102990000222384B80462946204627619847022369
:1029A0000246E9E701222946314B20469847022298
:1029B000304B80462946204627619847042302462B
:1029C000DAE7012229462A4B204698470222294B62
:1029D0008046294620462761984708230246CBE7D0
:1029E00001222946224B204698470222214B80464D
:1029F000294620462761984710230246BCE701225A
:102A000029461E4B204698470222814629462046E9
:102A1000174B9847032280462761164B29462046CC
:102A200098474B460246A7E701222946144B204609
:102A3000984703228146294620460D4B9847042299
:102A400080462761E9E7012229460E4B2046984738
:102A50000522814629462046054B98470622804696
:102A60002761DAE70023276163755EE70000000055
:102A70000000000000000000000000000000000056
:102A800000000000000000002DE9F043784B85B005
:102A900004469847C028064604D120467549764B1F
:102AA000984731E0C22803D120467449744BF7E7B8
:102AB0002046744B984720B92046734B98470546EB
:102AC00018B120467149724BEAE7CA2E1ED1237D08
:102AD0001BB1D4E901239A4205D10023637528462E
:102AE00005B0BDE8F0839B1A2269B2EBA30FF4D2C4
:102AF000684B20469847684B83ED000A637D002BA6
:102B0000EDD02046654B98470546E8E7CB2E12D11D
:102B1000237D002BE1D0D4E901239A42DDD09B1A1A
:102B20002269B2EBA30FD8D25D4B204698475D4B8C
:102B300083ED000BE2E7A02E21D006F12703DBB2E4
:102B4000022B1CD906F13C03DBB2022B28D920460C
:102B5000554B9847074600283ED000252046534B4A
:102B6000019501A998472E46DFF8A881DFF8A891C2
:102B7000019BC8F800509E4224D33D46AFE74C4D20
:102B80002B68DA0708D44B4B4B494C489847012334
:102B90004B482B604B4B9847204648494A4B7FE7B0
:102BA0004A490B68DB0709D40022494B4948C3E96D
:102BB00000229A6001230B60424B9847204644490B
:102BC000454B6DE72046C8470546002887D0D8F812
:102BD000003001365D1CCBE72046404B984718B1CA
:102BE00020463F493F4B5BE706F12C03DBB2042B49
:102BF00015D93936F6B2022E11D920463A4B9847EC
:102C000048B92046394B984728B92046384B984751
:102C100000283FF464AF20463649374B40E7374938
:102C20000B6813F0010308D1354A3648C2E9003376
:102C3000936001230B60234B9847237D002B3FF4C7
:102C40004CAFD4E901239A423FF447AF9B1A226963
:102C5000B2EBA30FBFF441AF214601A82A4B98471E
:102C600027482A4B01A99847294B01A8984745E7CF
:102C70000000000000000000000000000000000054
:102C80000000000000000000000000000000000044
:102C90000000000000000000000000000000000034
:102CA0000000000000000000000000000000000024
:102CB0000000000000000000000000000000000014
:102CC0000000000000000000000000000000000004
:102CD00000000000000000000000000000000000F4
:102CE00000000000000000000000000000000000E4
:102CF00000000000000000000000000000000000D4
:102D000000000000000000000000000000000000C3
:102D10000000000000000000000000002DE9F04F5E
:102D2000D0F80C340446032B89B04FD82E4B02A8A0
:102D3000984700262D4FDFF8D080DFF8D090D4F8E8
:102D40000434B3423FD902A80136B8473246211DA8
:102D500002A8C0470028F2D002A8C8470028EED039
:102D600000236946009302A8214B9847009DD5B1E6
:102D7000204B02A8984718B91F4B02A8984740B3A8
:102D80001E4B01A902A89847012DDDF804A00AD026
:102D90000125DFF87CB002A8D8470028CFD0009BDF
:102DA00001359D42F7D3BAF1020F02D815D0042D98
:102DB00015D0134B0022314620469847D4F81434DE
:102DC0000133C4F814340F4B03A8984709B0BDE889
:102DD000F08F05466FF0010ADBE7032DE8E7C4F842
:102DE00008A4C4F80C64EEE7000000000000000036
:102DF00000000000000000000000000000000000D3
:102E000000000000000000000000000000000000C2
:102E10000000000038B50446006803685B69984705
:102E200090B1D4F80434B3F5806F0DD0214651F839
:102E3000040B02681944D568C3F58062A847D4F82A
:102E400004340344C4F804342046014B984738BD89
:102E5000000000002DE9F043064685B00068274BCE
:102E600090460D4698473168254B01A8984725495B
:102E7000254B01A89847044630B9DFF89890371DD4
:102E8000D6F8F43A9C4207D30024204B01A8984777
:102E9000204605B0BDE8F083384601A9C84710B9FF
:102EA00001341C37ECE7414607F10C00C847002805
:102EB000F6D03068D0F8083433F002031CD1D0F8D3
:102EC0000C140A1FFC2A17D82B46C21C4C1912F8E6
:102ED000016F03F8016BA342F9D14FF0FF330022D9
:102EE000C0F80834C0F80C24094B9847041E18BFDA
:102EF0000124C5F80001C8E70020F7E70000000042
:102F000000000000000000000000000000000000C1
:102F100000000000000000002DE9F04100F1100663
:102F20000446D4B0642200233046DFF89880C047BE
:102F3000C8B9194B04A8984765681849184B01A8E7
:102F400098472846174B01AA04A998470746164BED
:102F500001A89847154D304647B9A847144B9847E4
:102F6000144B04A8984754B0BDE8F081A8476068A6
:102F7000114B04A99847114F04F124066422002341
:102F80003046C04730B960680D4B04A998473046B9
:102F9000A847E5E7B847F1E700000000DD000000C2
:102FA0000000000000000000000000000000000021
:102FB0000000000000000000000000000000000011
:102FC000000000000000000008B5044B98470448CA
:102FD00090F838310BB1034B984708BD0000000052
:102FE00000000000000000002DE9F04100F1100693
:102FF0000446D4B0642200233046DFF89880C047EE
:10300000C8B9194B04A8984765681849184B01A816
:1030100098472846174B01AA04A998470746164B1C
:1030200001A89847154D304647B9A847144B984713
:10303000144B04A8984754B0BDE8F081A8476068D5
:10304000114B04A99847114F04F124066422002370
:103050003046C04730B960680D4B04A998473046E8
:10306000A847E5E7B847F1E70000000000000000CE
:103070000000000000000000000000000000000050
:103080000000000000000000000000000000000040
:10309000000000000000000008B5054C054E064D7C
:1030A00094F838310BB12046B047A847F8E700BF85
:1030B000000000000000000000000000F8B50E460F
:1030C000044617461D460068094B984731462B4673
:1030D000084E3A462068B047064638B1294651F8AE
:1030E000043B44F8043F201D034B98473046F8BD8D
:1030F00000000000000000000000000000232DE997
:10310000F7438DF80430037D04462BBB1B4E1C4D4A
:1031100064220023E06AB04740BB636A04F11002F6
:10312000186804F11801174B9847174DE06AA84733
:10313000134FDFF85C80DFF85C9064220023A06A04
:10314000B047C8B923462169606A01AAC04778B16F
:10315000A06AA847012323750C4D04F11800A84765
:10316000201DA847204603B0BDE8F083A847CFE75D
:10317000A06AA847C847E0E7B847DEE700000000BC
:10318000000000000000000000000000000000003F
:103190000000000000000000F8B50E460446174687
:1031A0001D460068094B984731462B46084E3A4663
:1031B0002068B047064638B1294651F8043B44F828
:1031C000043F201D034B98473046F8BD0000000027
:1031D00000000000000000002DE9F047037D0446D8
:1031E0000E463BBB1A4F1B4D64220023E06AB847D2
:1031F00030BB606A236B0068174D04F1100204F1C4
:103200001801A847E06A154DA847DFF84880DFF8A5
:103210005090DFF850A064220023A06AB847A8B9F4
:10322000234632462169606AC84758B1A06AA84758
:10323000012323752068B0FA80F04009BDE8F087CB
:10324000A847D1E7A06AA847D047E4E7C047E2E72C
:10325000000000000000000000000000000000006E
:1032600000000000000000002DE9F04FDFF8AC8105
:103270000025C1469DB003AE5A495B4F3046B84762
:103280005A490CA8B8475A4B0FA859F810AB594CDB
:1032900098470CA913958DF8505015A8A04708F130
:1032A0002403CDE918A9CDE91A360DF10B01524BD3
:1032B0000FA898479DF8503082468DF82450002B77
:1032C00029D1DFF85C914D4D642200231A98C8473C
:1032D000002872D118981B9B0068494D13AA15A9A4
:1032E000A847484D1A98DFF83CB1A84701956422D9
:1032F00000231998C847002866D113991898424DA1
:103300000FAB09AAA847002859D0019B19989847E4
:1033100001238DF850303D4D15A8A84710A8A847A7
:103320000CA8A847BAF1000F42D0394906A8D8F82E
:103330000480B847314609A8A04706A90CA8A047B1
:10334000D8F8F43A632B2DD808F10407BA464FF0A9
:103350000009DFF8D4B0D8F8F43A994537D309A971
:103360000FA8A0470CA912A8A0472A4B2A489847A3
:103370001590D8F8F44ADFF8B490631CC8F8F43A12
:103380001C235C430FA93819C84704F10C0012A98B
:103390003844C847159BA044C8F81C3012A8A84759
:1033A0000FA8A8470CA8A84709A8A84706A8A84797
:1033B0003046A8471DB0BDE8F08FA84784E71998AC
:1033C000019B9847D84792E70C4B98478FE75046A8
:1033D00009A9D8470AF11C0A0028E3D109F101091B
:1033E000B9E700BFE600000000000000EE000000AA
:1033F00000000000000000000000000000000000CD
:1034000000000000000000000000000000000000BC
:1034100000000000000000000000000000000000AC
:10342000000000000000000000000000000000009C
:103430002DE9F047037D04460E4633BB184F194D66
:1034400064220023E06AB84708BB636A04F11002F3
:10345000186804F11801144B9847144DE06AA84706
:10346000DFF84080DFF84890DFF848A064220023AE
:10347000A06AB84788B9234632462169606AC847BE
:1034800038B1A06AA84701232375BDE8F087A84793
:10349000D6E7A06AA847D047E8E7C047E6E700BFFD
:1034A000000000000000000000000000000000001C
:1034B00000000000000000002DE9F04F0446806885
:1034C0009DB00368414EDB6998470820B047A36868
:1034D0003F4AE060C0E9002304F110083D4D40463A
:1034E000A84704F124073846A8471420B0470546EA
:1034F000DFF808A1E068D0472B4643F8040B1846D4
:10350000DFF8FC90C847256040F6F820B047064633
:10351000E068D047354645F8040B2F4B40F6F422BF
:1035200000212846DFF8DCB0DFF8DCA0984706F67B
:10353000F423594628460993D04705F10C00594613
:10354000D047099B1C35AB42F3D100256660C6F815
:10355000F45A224B29464FF4FA7098470146E0632B
:1035600000220023CDE9062305234FF4FA72CDE9AA
:1035700002531B4E1B4BCDE90055049504F140004E
:10358000B0471949A0630CA8D0470FA82668C847C0
:10359000164B0CA915A813958DF8505098470DF1AE
:1035A0002F01134B0FA8CDE918681A979847114BB4
:1035B0000FA89847104B0CA898479DF82F0010B102
:1035C000012384F838311DB0BDE8F08F0000000001
:1035D00008000000000000000000000000000000E3
:1035E0000000000000000000F900000000000000E2
:1035F00000000000000000000000000000000000CB
:10360000000000000000000000000000F0B52DEDFB
:10361000028B374C91B001210820A047354B002187
:103620000820984702210920A04701210B20A0472C
:10363000314D4FF4E1313148A847314C314B3248DC
:103640009847206990F838311BB94FF4E131A84709
:1036500000B324692D4925462D4B684698472D4BCC
:1036600003A855F8106B98470023694607938DF817
:10367000203009A8284B984724342849284B03A810
:10368000CDE90C650E949847264B03A898476846E9
:10369000254B98479FED250A2548264B98479FEDD7
:1036A000230A2348244B98479FED248A244E254F14
:1036B000357835B1244B11B0BDEC028BBDE8F0403C
:1036C00018470920B8470128044608D118481F4B5D
:1036D0009847294616481E4B98473470E8E7B0EEE5
:1036E000480A13481B4B98471B4B11489847DFE784
:1036F00000000000000000000000000000000000CA
:103700000000000000000000200200000101000095
:103710000000000000000000000000003402000073
:1037200000000000000000000000000000007A44DB
:10373000000000000000000000000000000048C27F
:103740000000000000000000000000000000000079
:103750000000000000000000000000002DE9F84318
:103760001A4B04460F469847064618B900263046BD
:10377000BDE8F883237D1BB1D4E901239A4215D11A
:103780000025657500239846DFF84C90A8453B60FE
:10379000EDD02046C8470028E8D02046C84700287A
:1037A000E4D03B6808F101080133EFE79B1A226976
:1037B000B2EBA30FE4D2064B20469847637D054643
:1037C000002BDFD02046034B9847DBE700000000CA
:1037D000000000000000000000000000002373B59E
:1037E000044600930846164B0E4615469847E028B7
:1037F0000CD000F13003DBB2022B07D9D3281BD049
:1038000020B100F13403DBB2022B15D80D4B694611
:1038100030469847009B0193E3680BB90A4B9847E1
:10382000236901A9201D9847084C2846A04728462F
:10383000A047002002B070BD4FF0FF30FAE700BF94
:103840000000000000000000000000000000000078
:10385000F0B52C4B07468DB008460E4614469847E7
:103860000546B0B92849294B05A89847FD2305A965
:10387000089309A8264B9847264D05A8A847204637
:10388000254B08A9984709A8A847002528460DB048
:10389000F0BD00233046019301A9204B9847019BBE
:1038A0000BB91F49DFE7012B01D01E49DBE7314689
:1038B000224638461C4B9847061EE7DA1B49134B35
:1038C00002A898470A22F143194B08A89847194BB8
:1038D00008A902A898470F4D08A8A847164B02A9A7
:1038E00005A89847FD2305A9089309A8084B984700
:1038F00005A8A8472046084B08A9984709A8A84743
:1039000002A8C1E7000000000F0100000000000055
:1039100000000000000000000000000000000000A7
:103920002F0100007E010000000000009201000055
:103930000000000000000000000000002DE9F0433E
:10394000D0F80C640546032E884617461C468BB0FB
:1039500040F28680D0F80834012B40F08180414B42
:1039600004A89847404B04A8984732463F4B291D6E
:1039700004A8984738B900263D4B05A8984730461B
:103980000BB0BDE8F0834FF000093A4E03AB02AA3A
:1039900001A904A8CDF80490B04706460028EAD053
:1039A000039B4345E7D1029B012B0AD02046FC2311
:1039B000314940F8043B314B98472846304B9847F3
:1039C000DAE7019B042B05D02046FC232D4940F863
:1039D000043BF0E72C4B04A88DF800909847C028D2
:1039E00031D19DF824301BB1DDE905239A4208D17D
:1039F00000238DF825302046FC23244940F8043B61
:103A0000D9E79B1A089AB2EBA30FF1D2204B04A876
:103A100098479DF825308DF80000002BEBD03946F3
:103A20001C4B04A898470028E5D01B4B00222846D1
:103A3000D5F80C1498474FF0FF33C5F8083400232D
:103A4000C5F80C3498E76A462146144B04A89847F9
:103A50000028EAD12046FC23114940F8043BAAE79C
:103A600000268CE7000000000000000000000000BD
:103A700000000000000000003A000000000000000C
:103A80000000000053000000000000007000000073
:103A90000000000000000000000000000000000026
:103AA000910000002DE9F74F037D04460F46002BDF
:103AB0003CD1DFF8A080224D64220023E06AC04799
:103AC00030BB606A236B006804F1100204F1180136
:103AD0001C4DA8471C4EE06AB047DFF86490DFF841
:103AE00078A0DFF878B064220023A06AC04720BB2A
:103AF000656A216928680191D04723463A460199B1
:103B00002868D84730B9A06AB047104B9847EAE711
:103B1000A847D1E7214651F8043B45F8043F281D4A
:103B20000B4B9847A06AB047012323752068B0FA71
:103B300080F0400903B0BDE8F08FC847D3E700BF6D
:103B40000000000000000000000000000000000075
:103B50000000000000000000000000000000000065
:103B60002DE9F04796B003AE0C4615460746384996
:103B70003046DFF80481C047DFF800912544A542B4
:103B800058D13C6900252746324906A8C047324B28
:103B900009A857F8108B9847304B06A90FA8243472
:103BA0000D958DF8385098472D4B02A909A8CDE9FD
:103BB0001446CDE9128798479DF8383004468DF8B1
:103BC0000450002B27D1274F274D6422002314983F
:103BD000B847002833D11298159B0068234D0DAAD1
:103BE0000FA9A8471498224DA847DFF87C80DFF87A
:103BF0009090DFF890A0642200231398B84720BB70
:103C00000D99129809AB01AAC847D0B11398A847DB
:103C100001238DF83830174D0FA8A8470AA8A847E8
:103C200006A8A84704B1029C3046A847204616B013
:103C3000BDE8F087304614F8011BC8479FE7A84746
:103C4000C3E71398A847D047D5E7C047D3E700BFDD
:103C500000000000B50100000000000000000000AE
:103C60000000000000000000000000000000000054
:103C70000000000000000000000000000000000044
:103C800000000000000000002DE9F043D0F80C64B3
:103C90000546032E884617461C468BB040F28680A8
:103CA000D0F80834012B40F08180414B04A898479C
:103CB000404B04A8984732463F4B291D04A898471B
:103CC00038B900263D4B05A8984730460BB0BDE8F3
:103CD000F0834FF000093A4E03AB02AA01A904A8F1
:103CE000CDF80490B04706460028EAD0039B434530
:103CF000E7D1029B012B0AD02046FC23314940F832
:103D0000043B314B98472846304B9847DAE7019BF4
:103D1000042B05D02046FC232D4940F8043BF0E756
:103D20002C4B04A88DF800909847C02831D19DF8FD
:103D300024301BB1DDE905239A4208D100238DF818
:103D400025302046FC23244940F8043BD9E79B1A40
:103D5000089AB2EBA30FF1D2204B04A898479DF824
:103D600025308DF80000002BEBD039461C4B04A801
:103D700098470028E5D01B4B00222846D5F80C14A4
:103D800098474FF0FF33C5F808340023C5F80C34CA
:103D900098E76A462146144B04A898470028EAD1C0
:103DA0002046FC23114940F8043BAAE700268CE793
:103DB0000000000000000000000000000000000003
:103DC000000000003A0000000000000000000000B9
:103DD0005300000000000000700000000000000020
:103DE0000000000000000000000000009100000042
:103DF0002DE9F74F037D04460F46002B3CD1DFF839
:103E0000A080224D64220023E06AC04730BB606A74
:103E1000236B006804F1100204F118011C4DA8473F
:103E20001C4EE06AB047DFF86490DFF878A0DFF856
:103E300078B064220023A06AC04720BB656A21696C
:103E400028680191D04723463A4601992868D84707
:103E500030B9A06AB047104B9847EAE7A847D1E7C6
:103E6000214651F8043B45F8043F281D0B4B984769
:103E7000A06AB047012323752068B0FA80F040099A
:103E800003B0BDE8F08FC847D3E700BF00000000D3
:103E90000000000000000000000000000000000022
:103EA0000000000000000000000000002DE9F043C9
:103EB00097B004460191002969D00669002537466C
:103EC0004449454B06A8CDE9035505959847434B12
:103ED00009A857F8108B984706A9414B0FA80D95D4
:103EE0008DF83850243698473E4D01AB06A81593FF
:103EF000CDE912871496A8473B4B03A909A8984718
:103F000078B104F508764FF0FF3238494FF0FF33AF
:103F100030468847DDE903218A423BD13046344BA5
:103F2000984700238DF818309DF83830002B27D1A2
:103F30002E4E304C642200231498B047002841D103
:103F40001298159B00682C4C0DAA0FA9A047149835
:103F5000274CA047274FDFF8A880DFF8A8906422FD
:103F600000231398B047002832D10D99129809AB5D
:103F700006AAC04740B31398A04701238DF83830F4
:103F80000FA8A8470AA8A8471C4B03A8984717B032
:103F9000BDE8F083D4F81C32B3F5007F10D0D4F81C
:103FA0001432107823441875D4F814320133C3F353
:103FB0000803C4F81432D4F81C320133C4F81C329C
:103FC0000132A9E7A047B5E71398A047C847C6E75D
:103FD000B847C4E7BF010000000000000000000077
:103FE00000000000000000000000000000000000D1
:103FF00000000000000000000000000000000000C1
:10400000000000000000000038B5044600F5087507
:104010000B494FF0FF324FF0FF3328468847D4F862
:104020001C12C1F50071002902DD2046054B98479E
:10403000D4F81C422846044B9847204638BD00BFA0
:10404000000000000000000000000000F0B50024A7
:104050002D4D85B02D4F1422214605F11000C5E9E4
:104060000044EC60B8471422214605F12400B8470B
:10407000F822214605F14000C5E90E44B847244B1B
:10408000244EAB604FF47A73B360234B4FF400724D
:10409000214606F11400336085F8384135617460BB
:1040A000B8471422214606F50870C6F81442C6F82F
:1040B0001842C6F81C42B847184B01211D60C3E9DD
:1040C00007441C765C620422052386F834421448B7
:1040D000CDE901310092134D0222A847124A13681C
:1040E0000133012B13600DD10326104DC5E90044A7
:1040F00005F108004FF483620021B847013E05F541
:104100008465F3D105B0F0BD0000000000000000A0
:104110000000000000000000080000000000000097
:10412000000000000000000000000000000000008F
:1041300008B5044A04481368013B1360034B9847D1
:1041400008BD00BF000000001C00000000000000CF
:10415000704700002DE9F84FD0ED087AD0E9068AC3
:1041600067EEA77A0446DFF85C9117EE900AC8471D
:104170000646A06A0F46C847DFF84CB102460B4618
:10418000D84702460B4630463946454EB047AAEB63
:104190000805444B9847002D08D1012822DC002354
:1041A0002846A56023626564BDE8F88F636C10DD66
:1041B000002B06DDA84201DA23799BB940426064F6
:1041C00010E00FD0A8420DDA22795AB15B42636445
:1041D00008E0002B2BDDA8EB0A0A8245EEDD2379EF
:1041E000002BEBD1D4F844A0BAF1000F28D1002D58
:1041F000D4BF00250125A36C2571E36494ED137AE7
:10420000DFED296AFCEEC77A17EE900AC4ED027A58
:10421000C6EE877A0AF1010363642379C4ED087A54
:10422000002BC1D1F1EE677AC4ED087ABCE7D9D092
:10423000A8EB0A088045D5DD2279002AD2D1C5E74E
:10424000E06CC84702460B4606460F46D847174B58
:10425000804650468946164D98470022154BA84780
:104260000022154BD8470E4D02460B4640464946A4
:10427000A847124D02460B4630463946A847104B18
:104280009847D4ED147A07EE100AB4EEE77AF1EE0F
:1042900010FA58BFF0EE477AC4ED137AAEE700BFCC
:1042A000000000000000000000247449000000002D
:1042B00000000000000010400000F03F000000007F
:1042C000000000000000000000000000037B082B3D
:1042D0001BD8DFE803F005080B0E111A141A17009B
:1042E0000368DB69184703681B6AFBE703685B6ABE
:1042F000F8E703689B6AF5E70368DB6AF2E703689F
:104300001B6BEFE703685B6BECE77047036801F03A
:10431000030102295B6906D0032906D0012914BFD5
:104320000221032118470121FCE70021FAE70323BA
:1043300091FBF3F303EB4303C91A0129024606D0AC
:10434000022904D031B9042103685B691847136856
:104350005B69FBE77047036801F0030102295B69B1
:1043600006D0032906D0012914BF052106211847CC
:104370000A21FCE70921FAE7062391FBF3F202FB8D
:10438000131105291CD8DFE801F003070B0F1317E1
:10439000042103685B691847036805215B69FAE734
:1043A000036801215B69F6E7036803215B69F2E7B3
:1043B000036802215B69EEE7036806215B69EAE7AF
:1043C0007047036801F0070101395B69062905D8C8
:1043D000DFE801F006080A0C0E1012000121184750
:1043E0000521FCE70421FAE70621F8E70221F6E7B8
:1043F0000A21F4E70821F2E70921F0E72DE9F0416D
:10440000057B0F46042D07D0082D1AD0032D03D0AD
:10441000062D14BF022503250026DFF82C8000F1AD
:104420000C0414F8010F47FA06F32179DB0748BFA3
:1044300081F001010136C047F3B29D42F1D8BDE8D9
:10444000F0810425E8E700BF0000000010B5044635
:1044500001790368490001F0FE015B699847227900
:104460002368002A0CBF0121032120465B6998477D
:10447000606B064B98472179236849002046BDE8C8
:1044800010405B6901F0FE01184700BF000000000A
:1044900010B504465421024B9847204610BD00BF7A
:1044A0000000000010B5037B044693B103680021AF
:1044B0005B69984794F83900FF280AD00121054B21
:1044C000984794F8381094F83900034BBDE8104031
:1044D000184710BD000000000000000070B5037B0D
:1044E000044643B30121407B134DA8470121A07B23
:1044F000A847237B042B01D0082B15D10121E07B99
:10450000A8470121207CA84794F83900FF2812D041
:104510000121A84794F8381094F83900074B81F02E
:104520000101BDE870401847032B01D0062BEBD1E9
:104530000121E07BE7E770BD000000000000000003
:10454000B5EEC00A70B5F1EE10FA2DED028BB0EEAB
:10455000408A90ED0A7A48BFB1EE408AB4EE487ABC
:10456000F1EE10FA044632D0D0ED117AC7EE086AA7
:10457000F8EEE77A67EEA67AFDEEE77A1A4BC0ED21
:10458000117A18EE100A9847184D02460B46002083
:104590004FF08041A847164B41EC100B98470EA3F3
:1045A000D3E9002351EC100B124DA8470CA3D3E91B
:1045B0000023A847104B984784ED0A8A2368A0641B
:1045C000BDEC028B2046BDE870401B691847BDEC6E
:1045D000028B70BDAFF300806F1283C0CAA1E53FAC
:1045E0000000000080842E41000000000000000058
:1045F000000000000000000000000000D0ED087A7C
:10460000F5EEC07AF1EE10FACCBFC36B036C18471D
:10461000C2698A4203D00368C1611B6918477047A9
:1046200083691944004B18470000000038B58368BF
:1046300004460BB9002038BD0A4B9847236BA2688B
:10464000C31A93420546F5D32379A16943B10131D9
:104650002368A16120469B69984701202563EAE70A
:104660000139F5E700000000D0E90602101A704792
:104670000023436483600023C0E90611036270478E
:1046800010B50B4B0446984718B1236820461B69A8
:104690009847D4ED087AF5EE407AF1EE10FA05D19C
:1046A000D4E90630C01A18BF012010BD0120FCE774
:1046B00000000000B5EEC00AF1EE10FA2DE9F0415D
:1046C00048BFB1EE400AD0ED097AF4EE407AF1EE3F
:1046D00010FA044629D09FED167AC7EE007A436C93
:1046E00080ED090A002BC0ED147A1EDDD0ED087AAA
:1046F00067EEA77A0F4D17EE900AA8470646A06A04
:104700000F46A8470C4D02460B46A8470B4D0246E4
:104710000B4630463946A847094B984723686064E2
:104720001B692046BDE8F0411847BDE8F08100BF95
:104730000024744900000000000000000000000098
:104740000000000070B51B4E8373066001269DF8C3
:1047500010300173C3739DF8143000214273037449
:104760004FF07E52002346634FF47F469DF8185069
:104770000446C0E906118160036243628362C2623B
:104780000163068741648364C364026501714174F7
:10479000418201750DB1084B98472046B7EE000ADB
:1047A000064B98472046B7EE000A054B984720462F
:1047B00070BD00BF08000000000000000000000005
:1047C00000000000B5EE400AF1EE10FA01D0014BF6
:1047D000184770470000000038B52DED028BD0ED72
:1047E000087AF4EE407AF1EE10FA04461AD0D0EDD1
:1047F000097AB1EE678AB4EEC08AF1EE10FA08DCED
:10480000F4EEC07AF1EE10FA54BFB0EE408AB0EE8A
:10481000678AB5EE408AF1EE10FA06D10023A36054
:1048200084ED088ABDEC028B38BD0F4B18EE100AE0
:1048300098470E4D02460B4609A1D1E90001A84751
:104840000B4B21F000419847B5EEC08AF1EE10FA0B
:10485000CCBF01230023A0602371E1E7AFF3008008
:104860000000000080842E410000000000000000D5
:10487000000000002DE9F0412DED028B90ED088A3B
:10488000B5EE408AF1EE10FA044623D068EE087ABD
:10489000124D17EE900AA8470646A06A0F46A84791
:1048A0000F4D02460B46A8470E4D02460B463046BA
:1048B0003946A8470C4B9847B5EEC08ABDEC028B31
:1048C000F1EE10FA094BD4BFC143411C2046BDE8AC
:1048D000F0411847BDEC028BBDE8F08100000000FC
:1048E00000000000000000000000000000000000C8
:1048F00070477047704700207047431E013913F816
:10490000012F11F8010F0AB18242F8D0101A704736
:1049100010B5441A0298521AC01A444394FBF2F498
:10492000E01810BD70B505460C46084649B1054B68
:1049300098472B68024621462846BDE870405B68D0
:10494000184770BD0000000008B50249024B9847A7
:1049500008BD00BF600200000000000038B5044B35
:1049600005469847034B044628469847204438BDDF
:104970000000000000000000004B1847000000008D
:1049800038B5094D0446A847E060236820465B69B6
:104990009847002807DAA847E368C01AA368984236
:1049A000F3D34FF0FF3038BD000000008160704746
:1049B0002DE9F04107460D460C46DFF81C808E18A5
:1049C000B44202D1601BBDE8F0813846C047031EE7
:1049D000F8DB04F8013BF3E70000000000230A685D
:1049E00002604A68C1E9003342608A688B60826075
:1049F0007047000010B50446006808B1014B9847A5
:104A0000204610BD0000000010B50446006808B143
:104A1000034B98470023C4E90133236010BD00BF56
:104A20000000000038B504460D460068034B013114
:104A3000984710B1C4E90005012038BD000000000E
:104A400010B50368044613B143688B4207D2204671
:104A5000044B984720B1A3680BB92268137001205A
:104A600010BD00BF0000000070B50B4B0E46114694
:104A700004461546984720B92046084B98472046DB
:104A800070BD2A463146064B2068A5609847002134
:104A90002268A368D154F2E7000000000000000083
:104AA0000000000038B5002304460D46C0E900337D
:104AB000836039B10846044B984729460246034BA8
:104AC00020469847204638BD000000000000000046
:104AD000884238B505460C460CD0074B006898470D
:104AE00023682B60A368AB6063686B600023C4E934
:104AF0000133236038BD00BF00000000884210B5BC
:104B00000B46044604D0096821B19A68034B9847C4
:104B1000204610BD024B9847FAE700BF0000000096
:104B200000000000002310B50446C0E90033836094
:104B3000014B9847204610BD0000000010B5044608
:104B4000014B9847204610BD0000000038B50546CF
:104B50000C4649B10846064B984721460246054B8C
:104B600028469847284638BD034B9847FAE700BFC8
:104B700000000000000000000000000010B500234D
:104B800004468AB0C4E90033A3600846044B01A977
:104B900098472046034B01A9984720460AB010BD0C
:104BA0000000000000000000F8B5044616460F465D
:104BB000856809B90020F8BD82B115442946084B23
:104BC00098470028F6D0A368206832461844394632
:104BD000044B984700222368A5605A550120EAE754
:104BE00000000000000000008A68014B09681847B7
:104BF0000000000007B5054B8DF8071001220DF1EC
:104C00000701984703B05DF804FB00BF00000000F7
:104C1000034600680A46096828B911B1936843B988
:104C200019460846704739B999680029F9D00178C2
:104C3000F7E709784942F4E7004B18470000000005
:104C400008B582688B689A4205D1044B9847B0FA40
:104C500080F0400908BD0020FCE700BF0000000014
:104C600008B582682AB959B10878B0FA80F04009CD
:104C700008BD006809B90078F7E7024B9847F4E7E8
:104C80000120F5E700000000F0B503468BB00846B0
:104C900061B3911E222935D80A2A06D1002B04DAE5
:104CA00001275B4201AD29460DE00027FAE7B3FB7F
:104CB000F2F602FB1633092BDCB21BD83033DBB221
:104CC00001F8013B3346002BF1D1A94210D0034635
:104CD00017B12D2203F8012B1C460A46AA420CD814
:104CE0004A1B8D4288BF0022002199540BB0F0BDB1
:104CF0001E46E3E704F15703E1E712F8016D04F8FB
:104D0000016BEBE70020F1E7004B184700000000C3
:104D10007047000038B5054B9847054B9847054B41
:104D20009847054D054CA847A047FCE70000000048
:104D30000000000000000000000000000000000073
:104D4000012838BF0120014B184700BF00000000B8
:104D5000004B18470000000008467047004B1847FA
:104D6000000000002DE9F0471B4C1C4D1C4F88B083
:104D70002646AE4204F130040AD31A4B9847164C2B
:104D8000194EAC4223D3194B08B0BDE8F047184781
:104D900014ED027B54E90C0154E90A2354E908CECE
:104DA00054E9068954F810AC8DED067BCDE9039AE1
:104DB000CDE901E8CDF800C0B84754F8300C54F8FC
:104DC0000C1C0B4B984754F8303C5E65D0E754F808
:104DD000300BB047D5E700BF000000000000000026
:104DE00000000000000000000000000000000000C3
:104DF0000000000003460A4619790123006803FAFF
:104E000001F103691B68194203D022B183681B6951
:104E100003E0002AFAD08368DB681847034670B4C1
:104E20000C46DA88006819792243012405698C4010
:104E30002B6812F0010F866814BF2343A3432B6035
:104E4000336870BC18470000004B18470000000092
:104E5000032911D8DFE801F0020D090B4FF480316E
:104E6000064B03EBC000064B18470649F8E7064916
:104E7000F6E74FF4C021F3E7704700BFB40200002B
:104E8000000000001000010020000100024B03EBB5
:104E9000C000024B184700BFB40200000000000031
:104EA00037B502460D4B53F8300003EBC2031C79B3
:104EB0000569836801A95B68984720B1431E584281
:104EC000584103B030BD019B2A685A400123A340DA
:104ED0001A4214BF01200020F3E700BFB402000013
:104EE0000A21A0FB0101014B184700BF0000000090
:104EF000633010B52CBF0121002164220023034C34
:104F0000A047BDE81040024B184700BF000000005A
:104F10000000000010B5044CA047A047A0220023C9
:104F2000024CA04710BD00BF0000000000000000C0
:104F300010B5034B9847034C0A220023A04710BD2D
:104F400000000000000000008368DB6903B118471F
:104F50007047036840F213421B6A1847704707B551
:104F600003688DF8071001225B680DF1070198476F
:104F700003B05DF804FB012070470000004B1847A8
:104F800000000000004908470000000037B5044653
:104F900000F1D4054FF0FF324FF0FF3328460A49A5
:104FA00088470A4B04F1800001220DF10701984760
:104FB0000446074B284698471CB19DF8070003B0EC
:104FC00030BD4FF0FF30FAE70000000000000000A5
:104FD0000000000037B5044600F1D4054FF0FF3261
:104FE0004FF0FF3328460A4988470A4B04F18000F6
:104FF00001220DF1070198470446074B28469847C0
:105000001CB19DF8070003B030BD4FF0FF30FAE748
:1050100000000000000000000000000038B5044659
:1050200000F1D40528460A494FF0FF324FF0FF3314
:105030008847B4F88C20B4F88430D4F890409B1A98
:105040009BB22846E41A034B9847204638BD00BF60
:10505000000000000000000070B5054600F1D40615
:105060004FF0FF32304607494FF0FF338847B5F81D
:105070008A30B5F886403046E41AA4B2024B98470D
:10508000204670BD0000000000000000002337B57E
:105090008DF8073002F00F03012B0446009143D036
:1050A000991E4B424B418DF8043002F0F003202B47
:1050B0003CD0302B0CBF0323012302F47062B2F505
:1050C000007F8DF8053033D0B2F5407F32D0B2F595
:1050D000807F0CBF0023032320698DF8063083688E
:1050E000DB680BB1694698472069836823B19B6CE4
:1050F00013B122461049984704F1D4054FF0FF320E
:1051000028460E494FF0FF33884700232846C4E95C
:105110002133C4F88C300A4B9847206983689B6A16
:1051200003B1984703B030BD0223BCE70223C4E7B4
:105130000123D1E70223CFE70000000000000000B8
:105140000000000038B50446084D628BE38B9A429C
:1051500007D1064D206983681B6B0BB1984710B1CE
:1051600038BDA847F1E7A847F4E700BF00000000FA
:105170002DE9F84F0446884615460026DFF858907A
:10518000DFF858B004F168074FF0FF324FF0FF33FB
:105190003846C847AA1B08EB06010C4B04F1140063
:1051A000984782463846D8475644BAF1000F04D192
:1051B0002069074B9847074B9847B542E2D12069D1
:1051C000034B98472846BDE8F88F00BF0000000059
:1051D00000000000000000000000000000000000CF
:1051E0002DE9F3470446006983685B6C43BB04F117
:1051F000D4060022002330462F4DA8472F4F2069A8
:1052000083685B6B13BB206983689B6913BB304663
:1052100004F168072A4EB047002200233846A84709
:10522000628BE38B9A4204D1206983681B6A03B1C5
:105230009847DFF89090DFF890A004F114081BE085
:1052400098470028D3D102B0BDE8F08798470028DE
:10525000D9D1DCE7082269469847021ED7DD082A23
:10526000A8BF0822694604F18000B8470028C6DAC2
:10527000CDE769464046D047206983685B6ABBB981
:10528000658BE38BED1AADB27DB1082D28BF0825E3
:1052900069462A464046C847206983685B6923B14E
:1052A0002A4669469847021EE3DA3846B047CAE7FD
:1052B00098470028E4D1F8E7000000000000000053
:1052C0000000000000000000000000000846014B44
:1052D000184700BF0000000010B504460122074B2C
:1052E00011465430984704F1140323600023C4E9A5
:1052F0000133E36040232361204610BD000000001D
:105300002DE9F0414FF000084FF47A770D4C0E4B29
:105310000E4E0F4D04F114002361C4E9018726608D
:10532000A84704F180000B4CA8470B4B04F1140074
:10533000C4E9018726602361A84704F18000A847DB
:10534000BDE8F0810000000000000000080000003F
:0C53500000000000000000000000000051
:10535C0000766563746F723A3A5F4D5F7265616C8B
:10536C006C6F635F696E73657274006D6F76696ED6
:10537C006720737465707065720073656E64696E16
:10538C00672061636B0061636B00556E65787065B7
:10539C006374656420726573706F6E7365207479C5
:1053AC00706500556E657870656374656420525045
:1053BC004320726573706F6E73652073697A650034
:1053CC00526573756C74206E6F74207061727361AA
:1053DC00626C652028636865636B2074797065293D
:1053EC0000525043204572726F72206E6F742070A1
:1053FC0061727361626C652028636865636B2074ED
:10540C007970652900766563746F723A3A726573C8
:10541C006572766500766563746F723A3A5F4D5FBC
:10542C0072616E67655F696E73657274005F5F733E
:10543C006166655F5F007374657070657200242F20
:10544C00726567697374657200242F726573657475
:10545C00006D6F6E2F636F6E6E65637465640055BF
:10546C006E73657269616C697A61626C65207061DA
:10547C0072616D6574657273206172726179004D31
:10548C00697373696E672063616C6C207061726103
:10549C006D657465727320285741524E494E473AD8
:1054AC002044656661756C7420706172616D207248
:1054BC0065736F6C7574696F6E206973206E6F7491
:1054CC0020696D706C656D656E7465642900546F30
:1054DC006F206D616E7920706172616D657465729B
:1054EC00730057726F6E67207479706520706172EB
:1054FC00616D6574657220696E20706F7369746973
:10550C006F6E3A20006D6F6E2F7772697465006D47
:10551C006F6E2F72656164000000000000000000D7
:10552C00000000000000000000000000000000006F
:10553C00000000000000000000000000000000005F
:10554C00000000000000000000000000000000004F
:10555C00000000000000000000000000000000003F
:10556C00000000000000000000000000000000002F
:10557C00000000000000000000000000000000001F
:10558C00000000000000000000000000000000000F
:10559C0000000000000000000000000000000000FF
:1055AC0000000000000000000000000000000000EF
:1055BC000D0A0053797374656D2048656170206520
:1055CC006E643A2025700A0053797374656D204817
:1055DC006561702073746172743A2025700A0053EF
:1055EC006B657463682048656170207374617274B4
:1055FC003A2025702C2073697A652025700A006D7D
:10560C0061696E000000000007000000000000004F
:10561C000600000000000000030000000000000075
:10562C0000000000000000000C0000000000000062
:10563C000B00000000000000010000000000000052
:10564C000200000000000000040000000000000048
:10565C00080000000000000009000000000000002D
:10566C000F000000000000000E0000000000000011
:10567C000D0000000000000004000000000000000D
:10568C000500000000000000060000000000000003
:10569C0007000000000000000100000000000000F6
:1056AC0000000000000000000B00000000000000E3
:1056BC000A000000000000000200000000000000D2
:1056CC0003000000000000000100000000000000CA
:1056DC0006000000000000000200000000000000B6
:1056EC0007000000000000000200000000000000A5
:1056FC000800000000000000030000000000000093
:10570C00090000000000000005000000000000007F
:10571C000400000000000000060000000000000073
:10572C000400000000000000070000000000000062
:10573C00060000000000000008000000000000004F
:10574C0007000000000000000E0000000000000038
:10575C0009000000000000000F0000000000000025
:10576C000500000000000000030000000000000025
:10577C000800000000000000000000000000000015
:10578C000800000000000000010000000000000004
:10579C000A000000000000000A00000000000000E9
:1057AC000B000000000000000C00000000000000D6
:1057BC000D000000000000000E00000000000000C2
:1057CC000F000000000000000000000000000000BE
:1057DC0001000000000000000200000000000000BA
:1057EC0003000000000000000400000000000000A6
:1057FC000500000000000000060000000000000092
:10580C00070000000000000008000000000000007D
:10581C0009000000000000000A0000000000000069
:10582C000D0000000000000002000000000000005D
:10583C000300000000000000000000000000000059
:10584C00000000000000000000000000000000004C
:10585C00000000000000000000000000000000003C
:08586C00000000000000000034
:10587400000000002100000042000000630000005E
:0858840084000000A5000000F3
:086B2C00AF02000000000000B0
:086B3400000000000000000059
:046B3C000000000055
:0400000300004D1597
:00000001FF
